S01700004763634170706C69636174696F6E312E737265635B
S11300000C942A000C943C000C943C000C943C008E
S11300100C943C000C943C000C943C000C94A40004
S11300200C943C000C943C000C943C000C943C005C
S11300300C943C000C943C000C943C000C943C004C
S11300400C943C000C943C000C943C000C943C003C
S11300500C943C0011241FBECFE5D8E0DEBFCDBF19
S113006020E0A0E6B0E001C01D92AA36B207E1F795
S11300700E948A000C9469020C94000086E886B9F8
S113008080E487B908951FBC8BE08EBD87EA91E6B2
S11300909BBD8ABD80E189BF0E943E0087B38C7FEF
S11300A087BB28E330E083E088BB8AB380688ABBDF
S11300B0E0E6F0E0318320831282E3E6F0E031836E
S11300C0208381E082837894089597B1987F877024
S11300D0892B87B986B1806486B93699FECF84B1FD
S11300E095B10895BC0180E090E00E944A0120E0AF
S11300F030EC4FE754E40E94D80020E030E040EABE
S113010050E40E94FC0120E030E048EC52E40E94FC
S1130110FC0108950E94430060916600709167009D
S1130120809168009091690020E030E048EC51E44F
S11301300E94D300882324F48BB380688BBBECCF5C
S11301408BB38F778BBBE8CF1F920F920FB60F92B2
S113015011242F933F934F935F936F937F938F93C8
S11301609F93AF93BF93EF93FF9380E00E9465004A
S11301700E94720060936600709367008093680029
S113018090936900FF91EF91BF91AF919F918F91EF
S11301907F916F915F914F913F912F910F900FBE7F
S11301A00F901F9018950E94870108F481E008952C
S11301B00E94EC000C94C2010E94BB0158F00E9402
S11301C0B40140F029F45F3F29F00C94AB015111C4
S11301D00C94F6010C94B1010E94D30168F39923A5
S11301E0B1F3552391F3951B550BBB27AA2762172F
S11301F07307840738F09F5F5F4F220F331F441F3C
S1130200AA1FA9F335D00E2E3AF0E0E832D091506F
S11302105040E695001CCAF72BD0FE2F29D0660F5C
S1130220771F881FBB1F261737074807AB07B0E89F
S113023009F0BB0B802DBF01FF2793585F4F3AF0A5
S11302409E3F510578F00C94AB010C94F6015F3F8E
S1130250E4F3983ED4F3869577956795B795F7952B
S11302609F5FC9F7880F911D9695879597F9089513
S1130270E1E0660F771F881FBB1F621773078407AF
S1130280BA0720F0621B730B840BBA0BEE1F88F7BE
S1130290E0950895E89409C097FB3EF49095809505
S11302A0709561957F4F8F4F9F4F9923A9F0F92F38
S11302B096E9BB279395F695879577956795B795B6
S11302C0F111F8CFFAF4BB0F11F460FF1BC06F5F9C
S11302D07F4F8F4F9F4F16C0882311F096E911C0AE
S11302E0772321F09EE8872F762F05C0662371F0CF
S11302F096E8862F70E060E02AF09A95660F771FE3
S1130300881FDAF7880F9695879597F90895990FBE
S11303100008550FAA0BE0E8FEEF16161706E807CB
S1130320F907C0F012161306E407F50798F0621BEC
S1130330730B840B950B39F40A2661F0232B242BC1
S1130340252B21F408950A2609F4A140A6958FEFE0
S1130350811D811D089597F99F6780E870E060E032
S113036008959FEF80EC089500240A94161617064A
S113037018060906089500240A9412161306140692
S113038005060895092E0394000C11F4882352F0F5
S1130390BB0F40F4BF2B11F460FF04C06F5F7F4FAD
S11303A08F4F9F4F089557FD9058440F551F59F094
S11303B05F3F71F04795880F97FB991F61F09F3F4E
S11303C079F087950895121613061406551FF2CF77
S11303D04695F1DF08C0161617061806991FF1CFC7
S11303E086957105610508940895E894BB276627EE
S11303F07727CB0197F908950E940F020C94C2014C
S11304000E94B40138F00E94BB0120F0952311F042
S11304100C94AB010C94B10111240C94F6010E94CC
S1130420D30170F3959FC1F3950F50E0551F629F60
S1130430F001729FBB27F00DB11D639FAA27F00D39
S1130440B11DAA1F649F6627B00DA11D661F829F60
S11304502227B00DA11D621F739FB00DA11D621F45
S1130460839FA00D611D221F749F3327A00D611D62
S1130470231F849F600D211D822F762F6A2F112444
S11304809F5750409AF0F1F088234AF0EE0FFF1F77
S1130490BB1F661F771F881F91505040A9F79E3FCE
S11304A0510580F00C94AB010C94F6015F3FE4F32A
S11304B0983ED4F3869577956795B795F795E79524
S11304C09F5FC1F7FE2B880F911D9695879597F92D
S10904D00895F894FFCF2B
S9030000FC
